:100000000C9462000C948A000C948A000C948A0070
:100010000C948A000C948A000C948A000C948A0038
:100020000C948A000C948A000C948A000C948A0028
:100030000C948A000C948A000C948A000C948A0018
:100040000C94BB020C948A000C9489020C946302F9
:100050000C948A000C948A000C948A000C948A00F8
:100060000C948A000C948A000000000024002700F1
:100070002A0000000000250028002B0000000000DE
:1000800023002600290004040404040404040202DA
:100090000202020203030303030301020408102007
:1000A0004080010204081020010204081020000012
:1000B0000008000201000003040700000000000027
:1000C0000000C80411241FBECFEFD8E0DEBFCDBFB3
:1000D00011E0A0E0B1E0EAEFF9E002C005900D9276
:1000E000AA31B107D9F721E0AAE1B1E001C01D9220
:1000F000AD3CB207E1F710E0C2E6D0E004C02197C2
:10010000FE010E94F504C136D107C9F70E9405031C
:100110000C94FB040C940000AF92BF92CF92DF923C
:10012000EF92FF920F931F93CF93DF936C017B01AC
:100130008B01040F151FEB015E01AE18BF08C0173D
:10014000D10759F06991D601ED91FC910190F081B0
:10015000E02DC6010995892B79F7C501DF91CF9173
:100160001F910F91FF90EF90DF90CF90BF90AF90D5
:100170000895FC01538D448D252F30E0842F90E0AD
:10018000821B930B541710F0CF9608950197089592
:10019000FC01918D828D981761F0A28DAE0FBF2F5B
:1001A000B11D5D968C91928D9F5F9F73928F90E0B1
:1001B00008958FEF9FEF0895FC01918D828D981720
:1001C00031F0828DE80FF11D858D90E008958FEF5D
:1001D0009FEF0895FC01918D228D892F90E0805C26
:1001E0009F4F821B91098F739927089580E391E0B7
:1001F0000E94EA0021E0892B09F420E0822F089573
:1002000080E090E0892B29F00E94F60081110C9487
:1002100000000895FC01A48DA80FB92FB11DA35AA9
:10022000BF4F2C91848D90E001968F739927848F16
:10023000A689B7892C93A089B1898C918370806439
:100240008C93938D848D981306C00288F389E02DDA
:1002500080818F7D80830895EF92FF920F931F938B
:10026000CF93DF93EC0181E0888F9B8D8C8D981369
:100270001AC0E889F989808185FF15C09FB7F89475
:10028000EE89FF896083E889F989808183708064C1
:1002900080839FBF81E090E0DF91CF911F910F910C
:1002A000FF90EF900895F62E0B8D10E00F5F1F4F1B
:1002B0000F731127E02E8C8D8E110CC00FB607FC2A
:1002C000FACFE889F989808185FFF5CFCE010E94B8
:1002D0000A01F1CFEB8DEC0FFD2FF11DE35AFF4F1B
:1002E000F0829FB7F8940B8FEA89FB898081806246
:1002F000CFCFCF93DF93EC01888D8823B9F0AA8903
:10030000BB89E889F9898C9185FD03C0808186FDD0
:100310000DC00FB607FCF7CF8C9185FFF2CF80811F
:1003200085FFEDCFCE010E940A01E9CFDF91CF9189
:100330000895833081F028F4813099F08230A9F05B
:1003400008958730A9F08830C9F08430B1F48091E5
:1003500080008F7D03C0809180008F778093800024
:10036000089584B58F7784BD089584B58F7DFBCFC4
:100370008091B0008F778093B00008958091B00095
:100380008F7DF9CFCF93DF93282F30E0F901E2552D
:10039000FF4F8491F901E656FF4FD491F901EA57D6
:1003A000FF4FC491CC23A1F081110E949901EC2F41
:1003B000F0E0EE0FFF1FE458FF4FA591B491EC91D0
:1003C000ED2381E090E009F480E0DF91CF91089582
:1003D00080E090E0FACF1F93CF93DF93282F30E097
:1003E000F901E255FF4F8491F901E656FF4FD49190
:1003F000F901EA57FF4FC491CC23A9F0162F8111C0
:100400000E949901EC2FF0E0EE0FFF1FEE58FF4F16
:10041000A591B4918FB7F894EC91111108C0D095C3
:10042000DE23DC938FBFDF91CF911F910895DE2BE8
:10043000F8CFCF93DF9390E0FC01E656FF4F249175
:100440008A579F4FFC0184918823D1F090E0880F58
:10045000991FFC01E859FF4FA591B491FC01EE589A
:10046000FF4FC591D491623071F49FB7F8943C91DD
:10047000822F809583238C93E8812E2B28839FBF26
:10048000DF91CF9108958FB7F894EC912E2B2C9398
:100490008FBFF6CF2FB7F89460911F0170912001A4
:1004A00080912101909122012FBF0895FC010190BC
:1004B0000020E9F73197AF01481B590BBC0180E3DD
:1004C00091E00C948C001F920F920FB60F921124A2
:1004D0002F933F934F935F936F937F938F939F934C
:1004E000AF93BF93EF93FF9380E391E00E940A01E3
:1004F000FF91EF91BF91AF919F918F917F916F91FC
:100500005F914F913F912F910F900FBE0F901F90D1
:1005100018951F920F920FB60F9211242F938F935D
:100520009F93EF93FF93E0914001F091410180810F
:10053000E0914601F091470182FD1BC090818091BE
:1005400049018F5F8F7320914A01821741F0E0913A
:100550004901F0E0E05DFE4F958F80934901FF91E6
:10056000EF919F918F912F910F900FBE0F901F9041
:1005700018958081F4CF1F920F920FB60F9211241D
:100580002F933F938F939F93AF93BF9380911F01BE
:1005900090912001A0912101B091220130911E0182
:1005A00023E0230F2D3758F50196A11DB11D20938F
:1005B0001E0180931F0190932001A0932101B0930D
:1005C000220180911A0190911B01A0911C01B09110
:1005D0001D010196A11DB11D80931A0190931B016D
:1005E000A0931C01B0931D01BF91AF919F918F917A
:1005F0003F912F910F900FBE0F901F90189526E8F6
:10060000230F0296A11DB11DD2CF789484B58260CC
:1006100084BD84B5816084BD85B5826085BD85B5A6
:10062000816085BD80916E00816080936E00109224
:10063000810080918100826080938100809181009F
:100640008160809381008091800081608093800030
:100650008091B10084608093B1008091B00081608E
:100660008093B00080917A00846080937A008091BA
:100670007A00826080937A0080917A008160809312
:100680007A0080917A00806880937A001092C1008D
:10069000E0914001F091410182E08083E0913C01D2
:1006A000F0913D011082E0913E01F0913F018FEC0D
:1006B000808310924801E0914401F091450186E069
:1006C0008083E0914201F0914301808180618083C9
:1006D000E0914201F0914301808188608083E09144
:1006E0004201F0914301808180688083E091420162
:1006F000F091430180818F7D808361E08FE00E94D3
:10070000190261E081E10E94190262E082E10E9427
:10071000190262E084E00E94190262E088E00E940F
:10072000190262E08AE00E94190200E010E0C1E0D4
:10073000D0E082E10E94C2017C0190932F0180935E
:100740002E0184E00E94C20190932D0180932C0120
:1007500088E00E94C20190932B0180932A018AE0D5
:100760000E94C2019093290180932801EF2809F08B
:10077000D8C0809127018111D4C00E944A02C09044
:100780002301D0902401E0902501F09026016C19FE
:100790007D098E099F09613971408105910508F431
:1007A000C0C061E08FE00E94EB01D0932F01C093A5
:1007B0002E0182E191E00E9456020E944A0260935B
:1007C000230170932401809325019093260181E0F9
:1007D0008093270180912E0190912F01019729F498
:1007E0008091270181111092270180912C01909115
:1007F0002D01892B09F49AC060E081E10E94EB0190
:1008000080912C0190912D01019729F4809127016D
:1008100081111092270180912A0190912B01892B3F
:1008200061F580912701811133C00E944A02C09076
:100830002301D0902401E0902501F09026016C194D
:100840007D098E099F09613971408105910500F18B
:10085000D0932B01C0932A0186E191E00E945602B9
:100860000E944A0260932301709324018093250122
:100870009093260181E08093270180912A01909135
:100880002B01019729F480912701811110922701F2
:100890008091280190912901892B61F58091270190
:1008A000811133C00E944A02C0902301D0902401DC
:1008B000E0902501F09026016C197D098E099F09B1
:1008C000613971408105910500F1D0932901C093F0
:1008D000280188E191E00E9456020E944A0260933A
:1008E000230170932401809325019093260181E0D8
:1008F000809327018091280190912901019729F483
:10090000809127018111109227010115110509F429
:1009100010CF0E94F600882309F40BCF0E9400003C
:1009200008CF60E08FE00E94EB0154CF8091270157
:10093000811162CF0E944A02C0902301D09024010D
:10094000E0902501F09026016C197D098E099F0920
:10095000613971408105910508F44ECF61E081E174
:100960000E94EB01D0932D01C0932C0184E191E012
:100970000E9456020E944A02609323017093240150
:10098000809325019093260181E08093270138CF41
:10099000E0E3F1E01382128288EE93E0A0E0B0E0A1
:1009A00084839583A683B78384E091E091838083D9
:1009B00085EC90E09587848784EC90E09787868724
:1009C00080EC90E0918B808B81EC90E0938B828B1C
:1009D00082EC90E0958B848B86EC90E0978B868BF5
:1009E000118E128E138E148E0895EE0FFF1F059038
:0A09F000F491E02D0994F894FFCF74
:1009FA00000000002C018C00B9007901EA00C8004F
:0A0A0A00DC002E002D003F0020004C
:00000001FF
